{
  "_format": "hh-sol-artifact-1",
  "contractName": "WDToken",
  "sourceName": "contracts/WDToken.sol",
  "abi": [
    {
      "inputs": [],
      "stateMutability": "nonpayable",
      "type": "constructor"
    },
    {
      "anonymous": false,
      "inputs": [
        {
          "indexed": true,
          "internalType": "address",
          "name": "owner",
          "type": "address"
        },
        {
          "indexed": true,
          "internalType": "address",
          "name": "spender",
          "type": "address"
        },
        {
          "indexed": false,
          "internalType": "uint256",
          "name": "value",
          "type": "uint256"
        }
      ],
      "name": "Approval",
      "type": "event"
    },
    {
      "anonymous": false,
      "inputs": [
        {
          "indexed": true,
          "internalType": "address",
          "name": "dst",
          "type": "address"
        },
        {
          "indexed": false,
          "internalType": "uint256",
          "name": "amount",
          "type": "uint256"
        }
      ],
      "name": "Deposit",
      "type": "event"
    },
    {
      "anonymous": false,
      "inputs": [
        {
          "indexed": true,
          "internalType": "address",
          "name": "from",
          "type": "address"
        },
        {
          "indexed": true,
          "internalType": "address",
          "name": "to",
          "type": "address"
        },
        {
          "indexed": false,
          "internalType": "uint256",
          "name": "value",
          "type": "uint256"
        }
      ],
      "name": "Transfer",
      "type": "event"
    },
    {
      "anonymous": false,
      "inputs": [
        {
          "indexed": true,
          "internalType": "address",
          "name": "src",
          "type": "address"
        },
        {
          "indexed": false,
          "internalType": "uint256",
          "name": "amount",
          "type": "uint256"
        }
      ],
      "name": "Withdrawal",
      "type": "event"
    },
    {
      "stateMutability": "nonpayable",
      "type": "fallback"
    },
    {
      "inputs": [
        {
          "internalType": "address",
          "name": "owner",
          "type": "address"
        },
        {
          "internalType": "address",
          "name": "spender",
          "type": "address"
        }
      ],
      "name": "allowance",
      "outputs": [
        {
          "internalType": "uint256",
          "name": "",
          "type": "uint256"
        }
      ],
      "stateMutability": "view",
      "type": "function"
    },
    {
      "inputs": [
        {
          "internalType": "address",
          "name": "spender",
          "type": "address"
        },
        {
          "internalType": "uint256",
          "name": "amount",
          "type": "uint256"
        }
      ],
      "name": "approve",
      "outputs": [
        {
          "internalType": "bool",
          "name": "",
          "type": "bool"
        }
      ],
      "stateMutability": "nonpayable",
      "type": "function"
    },
    {
      "inputs": [
        {
          "internalType": "address",
          "name": "account",
          "type": "address"
        }
      ],
      "name": "balanceOf",
      "outputs": [
        {
          "internalType": "uint256",
          "name": "",
          "type": "uint256"
        }
      ],
      "stateMutability": "view",
      "type": "function"
    },
    {
      "inputs": [],
      "name": "decimals",
      "outputs": [
        {
          "internalType": "uint8",
          "name": "",
          "type": "uint8"
        }
      ],
      "stateMutability": "view",
      "type": "function"
    },
    {
      "inputs": [
        {
          "internalType": "address",
          "name": "spender",
          "type": "address"
        },
        {
          "internalType": "uint256",
          "name": "subtractedValue",
          "type": "uint256"
        }
      ],
      "name": "decreaseAllowance",
      "outputs": [
        {
          "internalType": "bool",
          "name": "",
          "type": "bool"
        }
      ],
      "stateMutability": "nonpayable",
      "type": "function"
    },
    {
      "inputs": [],
      "name": "deposit",
      "outputs": [],
      "stateMutability": "nonpayable",
      "type": "function"
    },
    {
      "inputs": [],
      "name": "getDTokenBalance",
      "outputs": [
        {
          "internalType": "uint256",
          "name": "",
          "type": "uint256"
        }
      ],
      "stateMutability": "view",
      "type": "function"
    },
    {
      "inputs": [
        {
          "internalType": "address",
          "name": "spender",
          "type": "address"
        },
        {
          "internalType": "uint256",
          "name": "addedValue",
          "type": "uint256"
        }
      ],
      "name": "increaseAllowance",
      "outputs": [
        {
          "internalType": "bool",
          "name": "",
          "type": "bool"
        }
      ],
      "stateMutability": "nonpayable",
      "type": "function"
    },
    {
      "inputs": [],
      "name": "name",
      "outputs": [
        {
          "internalType": "string",
          "name": "",
          "type": "string"
        }
      ],
      "stateMutability": "view",
      "type": "function"
    },
    {
      "inputs": [],
      "name": "symbol",
      "outputs": [
        {
          "internalType": "string",
          "name": "",
          "type": "string"
        }
      ],
      "stateMutability": "view",
      "type": "function"
    },
    {
      "inputs": [],
      "name": "totalSupply",
      "outputs": [
        {
          "internalType": "uint256",
          "name": "",
          "type": "uint256"
        }
      ],
      "stateMutability": "view",
      "type": "function"
    },
    {
      "inputs": [
        {
          "internalType": "address",
          "name": "to",
          "type": "address"
        },
        {
          "internalType": "uint256",
          "name": "amount",
          "type": "uint256"
        }
      ],
      "name": "transfer",
      "outputs": [
        {
          "internalType": "bool",
          "name": "",
          "type": "bool"
        }
      ],
      "stateMutability": "nonpayable",
      "type": "function"
    },
    {
      "inputs": [
        {
          "internalType": "address",
          "name": "from",
          "type": "address"
        },
        {
          "internalType": "address",
          "name": "to",
          "type": "address"
        },
        {
          "internalType": "uint256",
          "name": "amount",
          "type": "uint256"
        }
      ],
      "name": "transferFrom",
      "outputs": [
        {
          "internalType": "bool",
          "name": "",
          "type": "bool"
        }
      ],
      "stateMutability": "nonpayable",
      "type": "function"
    },
    {
      "inputs": [
        {
          "internalType": "uint256",
          "name": "amount",
          "type": "uint256"
        }
      ],
      "name": "withdraw",
      "outputs": [],
      "stateMutability": "nonpayable",
      "type": "function"
    }
  ],
  "bytecode": "0x608060405260006006553480156200001657600080fd5b506040518060400160405280600e81526020016d2bb930b83832b210222a37b5b2b760911b815250604051806040016040528060078152602001662ba22a27a5a2a760c91b81525081600390816200006f919062000131565b5060046200007e828262000131565b5050600160055550620001fd565b634e487b7160e01b600052604160045260246000fd5b600181811c90821680620000b757607f821691505b602082108103620000d857634e487b7160e01b600052602260045260246000fd5b50919050565b601f8211156200012c57600081815260208120601f850160051c81016020861015620001075750805b601f850160051c820191505b81811015620001285782815560010162000113565b5050505b505050565b81516001600160401b038111156200014d576200014d6200008c565b62000165816200015e8454620000a2565b84620000de565b602080601f8311600181146200019d5760008415620001845750858301515b600019600386901b1c1916600185901b17855562000128565b600085815260208120601f198616915b82811015620001ce57888601518255948401946001909101908401620001ad565b5085821015620001ed5787850151600019600388901b60f8161c191681555b5050505050600190811b01905550565b611181806200020d6000396000f3fe608060405234801561001057600080fd5b50600436106100ea5760003560e01c806370a082311161008c578063a9059cbb11610066578063a9059cbb1461020c578063d0e30db01461021f578063dd62ed3e14610227578063e09646521461023a576100ea565b806370a08231146101c857806395d89b41146101f1578063a457c2d7146101f9576100ea565b806323b872dd116100c857806323b872dd1461017e5780632e1a7d4d14610191578063313ce567146101a657806339509351146101b5576100ea565b806306fdde031461012b578063095ea7b31461014957806318160ddd1461016c575b6002600554036101155760405162461bcd60e51b815260040161010c90610ef3565b60405180910390fd5b6002600555610122610242565b60016005819055005b6101336102f5565b6040516101409190610f4e565b60405180910390f35b61015c610157366004610f9d565b610387565b6040519015158152602001610140565b6002545b604051908152602001610140565b61015c61018c366004610fc7565b6103a1565b6101a461019f366004611003565b6103c5565b005b60405160128152602001610140565b61015c6101c3366004610f9d565b6104f9565b6101706101d636600461101c565b6001600160a01b031660009081526020819052604090205490565b61013361051b565b61015c610207366004610f9d565b61052a565b61015c61021a366004610f9d565b6105a5565b6101a46105b3565b61017061023536600461103e565b6105e9565b610170610614565b600061024c610614565b905060006006548261025e9190611087565b60068390559050806102b25760405162461bcd60e51b815260206004820152601b60248201527f4e6f2064746f6b656e20616d6f756e7420746f206465706f7369740000000000604482015260640161010c565b6102bc3382610793565b60405181815233907fe1fffcc4923d04b559f4d29a8bfc6cda04eb5b0d3c460751c2402c5c5cc9109c9060200160405180910390a25050565b6060600380546103049061109a565b80601f01602080910402602001604051908101604052809291908181526020018280546103309061109a565b801561037d5780601f106103525761010080835404028352916020019161037d565b820191906000526020600020905b81548152906001019060200180831161036057829003601f168201915b5050505050905090565b600033610395818585610872565b60019150505b92915050565b6000336103af858285610997565b6103ba858585610a11565b506001949350505050565b6002600554036103e75760405162461bcd60e51b815260040161010c90610ef3565b6002600555336000908152602081905260409020548111156104425760405162461bcd60e51b8152602060048201526014602482015273496e73756666696369656e742062616c616e636560601b604482015260640161010c565b600081116104925760405162461bcd60e51b815260206004820152601c60248201527f4e6f2064746f6b656e20616d6f756e7420746f20776974686472617700000000604482015260640161010c565b8061049b610614565b6104a59190611087565b6006556104b23382610bdf565b6104bc3382610d25565b60405181815233907f7fcf532c15f0a6db0bd6d0e038bea71d30d808c7d98cb3bf7268a95bf5081b659060200160405180910390a2506001600555565b60003361039581858561050c83836105e9565b61051691906110d4565b610872565b6060600480546103049061109a565b6000338161053882866105e9565b9050838110156105985760405162461bcd60e51b815260206004820152602560248201527f45524332303a2064656372656173656420616c6c6f77616e63652062656c6f77604482015264207a65726f60d81b606482015260840161010c565b6103ba8286868403610872565b600033610395818585610a11565b6002600554036105d55760405162461bcd60e51b815260040161010c90610ef3565b60026005556105e2610242565b6001600555565b6001600160a01b03918216600090815260016020908152604080832093909416825291909152205490565b604080513060601b6bffffffffffffffffffffffff19166020820152815160148183030181526034909101918290526000918290819060c9906106589085906110e7565b600060405180830381855afa9150503d8060008114610693576040519150601f19603f3d011682016040523d82523d6000602084013e610698565b606091505b5091509150816107105760405162461bcd60e51b815260206004820152603f60248201527f6661696c656420746f2063616c6c20707265636f6d70696c656420636f6e747260448201527f61637420746f207175657279207468652044546f6b656e2062616c616e636500606482015260840161010c565b6020815111156107745760405162461bcd60e51b815260206004820152602960248201527f627974657320746f2075696e7432353620636f6e76657273696f6e2077696c6c604482015268206f766572666c6f7760b81b606482015260840161010c565b60008180602001905181019061078a9190611103565b95945050505050565b6001600160a01b0382166107e95760405162461bcd60e51b815260206004820152601f60248201527f45524332303a206d696e7420746f20746865207a65726f206164647265737300604482015260640161010c565b80600260008282546107fb91906110d4565b90915550506001600160a01b038216600090815260208190526040812080548392906108289084906110d4565b90915550506040518181526001600160a01b038316906000907fddf252ad1be2c89b69c2b068fc378daa952ba7f163c4a11628f55a4df523b3ef9060200160405180910390a35050565b6001600160a01b0383166108d45760405162461bcd60e51b8152602060048201526024808201527f45524332303a20617070726f76652066726f6d20746865207a65726f206164646044820152637265737360e01b606482015260840161010c565b6001600160a01b0382166109355760405162461bcd60e51b815260206004820152602260248201527f45524332303a20617070726f766520746f20746865207a65726f206164647265604482015261737360f01b606482015260840161010c565b6001600160a01b0383811660008181526001602090815260408083209487168084529482529182902085905590518481527f8c5be1e5ebec7d5bd14f71427d1e84f3dd0314c0f7b2291e5b200ac8c7c3b92591015b60405180910390a3505050565b60006109a384846105e9565b90506000198114610a0b57818110156109fe5760405162461bcd60e51b815260206004820152601d60248201527f45524332303a20696e73756666696369656e7420616c6c6f77616e6365000000604482015260640161010c565b610a0b8484848403610872565b50505050565b6001600160a01b038316610a755760405162461bcd60e51b815260206004820152602560248201527f45524332303a207472616e736665722066726f6d20746865207a65726f206164604482015264647265737360d81b606482015260840161010c565b6001600160a01b038216610ad75760405162461bcd60e51b815260206004820152602360248201527f45524332303a207472616e7366657220746f20746865207a65726f206164647260448201526265737360e81b606482015260840161010c565b6001600160a01b03831660009081526020819052604090205481811015610b4f5760405162461bcd60e51b815260206004820152602660248201527f45524332303a207472616e7366657220616d6f756e7420657863656564732062604482015265616c616e636560d01b606482015260840161010c565b6001600160a01b03808516600090815260208190526040808220858503905591851681529081208054849290610b869084906110d4565b92505081905550826001600160a01b0316846001600160a01b03167fddf252ad1be2c89b69c2b068fc378daa952ba7f163c4a11628f55a4df523b3ef84604051610bd291815260200190565b60405180910390a3610a0b565b6001600160a01b038216610c3f5760405162461bcd60e51b815260206004820152602160248201527f45524332303a206275726e2066726f6d20746865207a65726f206164647265736044820152607360f81b606482015260840161010c565b6001600160a01b03821660009081526020819052604090205481811015610cb35760405162461bcd60e51b815260206004820152602260248201527f45524332303a206275726e20616d6f756e7420657863656564732062616c616e604482015261636560f01b606482015260840161010c565b6001600160a01b0383166000908152602081905260408120838303905560028054849290610ce2908490611087565b90915550506040518281526000906001600160a01b038516907fddf252ad1be2c89b69c2b068fc378daa952ba7f163c4a11628f55a4df523b3ef9060200161098a565b60408051603480825260608201909252600091602082018180368337019050509050816000805b6014811015610db4578560601b8160148110610d6a57610d6a61111c565b1a60f81b8483610d7981611132565b945081518110610d8b57610d8b61111c565b60200101906001600160f81b031916908160001a90535080610dac81611132565b915050610d4c565b5060005b6020811015610e1d57828160208110610dd357610dd361111c565b1a60f81b8483610de281611132565b945081518110610df457610df461111c565b60200101906001600160f81b031916908160001a90535080610e1581611132565b915050610db8565b600060cb6001600160a01b031685604051610e3891906110e7565b6000604051808303816000865af19150503d8060008114610e75576040519150601f19603f3d011682016040523d82523d6000602084013e610e7a565b606091505b5050905080610eea5760405162461bcd60e51b815260206004820152603660248201527f6661696c656420746f2063616c6c20707265636f6d70696c656420636f6e747260448201527530b1ba103a37903a3930b739b332b910222a37b5b2b760511b606482015260840161010c565b50505050505050565b6020808252601f908201527f5265656e7472616e637947756172643a207265656e7472616e742063616c6c00604082015260600190565b60005b83811015610f45578181015183820152602001610f2d565b50506000910152565b6020815260008251806020840152610f6d816040850160208701610f2a565b601f01601f19169190910160400192915050565b80356001600160a01b0381168114610f9857600080fd5b919050565b60008060408385031215610fb057600080fd5b610fb983610f81565b946020939093013593505050565b600080600060608486031215610fdc57600080fd5b610fe584610f81565b9250610ff360208501610f81565b9150604084013590509250925092565b60006020828403121561101557600080fd5b5035919050565b60006020828403121561102e57600080fd5b61103782610f81565b9392505050565b6000806040838503121561105157600080fd5b61105a83610f81565b915061106860208401610f81565b90509250929050565b634e487b7160e01b600052601160045260246000fd5b8181038181111561039b5761039b611071565b600181811c908216806110ae57607f821691505b6020821081036110ce57634e487b7160e01b600052602260045260246000fd5b50919050565b8082018082111561039b5761039b611071565b600082516110f9818460208701610f2a565b9190910192915050565b60006020828403121561111557600080fd5b5051919050565b634e487b7160e01b600052603260045260246000fd5b60006001820161114457611144611071565b506001019056fea26469706673582212208192bea3c8964150bf522cf97c7862601864aabcb4962257b9081e390257df2c64736f6c63430008130033",
  "linkReferences": {},
  "deployedLinkReferences": {}
}