{
  "_format": "hh-sol-artifact-1",
  "contractName": "WDnero",
  "sourceName": "contracts/WDnero.sol",
  "abi": [
    {
      "inputs": [],
      "stateMutability": "nonpayable",
      "type": "constructor"
    },
    {
      "anonymous": false,
      "inputs": [
        {
          "indexed": true,
          "internalType": "address",
          "name": "owner",
          "type": "address"
        },
        {
          "indexed": true,
          "internalType": "address",
          "name": "spender",
          "type": "address"
        },
        {
          "indexed": false,
          "internalType": "uint256",
          "name": "value",
          "type": "uint256"
        }
      ],
      "name": "Approval",
      "type": "event"
    },
    {
      "anonymous": false,
      "inputs": [
        {
          "indexed": true,
          "internalType": "address",
          "name": "dst",
          "type": "address"
        },
        {
          "indexed": false,
          "internalType": "uint256",
          "name": "amount",
          "type": "uint256"
        }
      ],
      "name": "Deposit",
      "type": "event"
    },
    {
      "anonymous": false,
      "inputs": [
        {
          "indexed": true,
          "internalType": "address",
          "name": "from",
          "type": "address"
        },
        {
          "indexed": true,
          "internalType": "address",
          "name": "to",
          "type": "address"
        },
        {
          "indexed": false,
          "internalType": "uint256",
          "name": "value",
          "type": "uint256"
        }
      ],
      "name": "Transfer",
      "type": "event"
    },
    {
      "anonymous": false,
      "inputs": [
        {
          "indexed": true,
          "internalType": "address",
          "name": "src",
          "type": "address"
        },
        {
          "indexed": false,
          "internalType": "uint256",
          "name": "amount",
          "type": "uint256"
        }
      ],
      "name": "Withdrawal",
      "type": "event"
    },
    {
      "stateMutability": "nonpayable",
      "type": "fallback"
    },
    {
      "inputs": [
        {
          "internalType": "address",
          "name": "owner",
          "type": "address"
        },
        {
          "internalType": "address",
          "name": "spender",
          "type": "address"
        }
      ],
      "name": "allowance",
      "outputs": [
        {
          "internalType": "uint256",
          "name": "",
          "type": "uint256"
        }
      ],
      "stateMutability": "view",
      "type": "function"
    },
    {
      "inputs": [
        {
          "internalType": "address",
          "name": "spender",
          "type": "address"
        },
        {
          "internalType": "uint256",
          "name": "amount",
          "type": "uint256"
        }
      ],
      "name": "approve",
      "outputs": [
        {
          "internalType": "bool",
          "name": "",
          "type": "bool"
        }
      ],
      "stateMutability": "nonpayable",
      "type": "function"
    },
    {
      "inputs": [
        {
          "internalType": "address",
          "name": "account",
          "type": "address"
        }
      ],
      "name": "balanceOf",
      "outputs": [
        {
          "internalType": "uint256",
          "name": "",
          "type": "uint256"
        }
      ],
      "stateMutability": "view",
      "type": "function"
    },
    {
      "inputs": [],
      "name": "decimals",
      "outputs": [
        {
          "internalType": "uint8",
          "name": "",
          "type": "uint8"
        }
      ],
      "stateMutability": "view",
      "type": "function"
    },
    {
      "inputs": [
        {
          "internalType": "address",
          "name": "spender",
          "type": "address"
        },
        {
          "internalType": "uint256",
          "name": "subtractedValue",
          "type": "uint256"
        }
      ],
      "name": "decreaseAllowance",
      "outputs": [
        {
          "internalType": "bool",
          "name": "",
          "type": "bool"
        }
      ],
      "stateMutability": "nonpayable",
      "type": "function"
    },
    {
      "inputs": [],
      "name": "deposit",
      "outputs": [],
      "stateMutability": "nonpayable",
      "type": "function"
    },
    {
      "inputs": [],
      "name": "getDneroBalance",
      "outputs": [
        {
          "internalType": "uint256",
          "name": "",
          "type": "uint256"
        }
      ],
      "stateMutability": "view",
      "type": "function"
    },
    {
      "inputs": [
        {
          "internalType": "address",
          "name": "spender",
          "type": "address"
        },
        {
          "internalType": "uint256",
          "name": "addedValue",
          "type": "uint256"
        }
      ],
      "name": "increaseAllowance",
      "outputs": [
        {
          "internalType": "bool",
          "name": "",
          "type": "bool"
        }
      ],
      "stateMutability": "nonpayable",
      "type": "function"
    },
    {
      "inputs": [],
      "name": "name",
      "outputs": [
        {
          "internalType": "string",
          "name": "",
          "type": "string"
        }
      ],
      "stateMutability": "view",
      "type": "function"
    },
    {
      "inputs": [],
      "name": "symbol",
      "outputs": [
        {
          "internalType": "string",
          "name": "",
          "type": "string"
        }
      ],
      "stateMutability": "view",
      "type": "function"
    },
    {
      "inputs": [],
      "name": "totalSupply",
      "outputs": [
        {
          "internalType": "uint256",
          "name": "",
          "type": "uint256"
        }
      ],
      "stateMutability": "view",
      "type": "function"
    },
    {
      "inputs": [
        {
          "internalType": "address",
          "name": "to",
          "type": "address"
        },
        {
          "internalType": "uint256",
          "name": "amount",
          "type": "uint256"
        }
      ],
      "name": "transfer",
      "outputs": [
        {
          "internalType": "bool",
          "name": "",
          "type": "bool"
        }
      ],
      "stateMutability": "nonpayable",
      "type": "function"
    },
    {
      "inputs": [
        {
          "internalType": "address",
          "name": "from",
          "type": "address"
        },
        {
          "internalType": "address",
          "name": "to",
          "type": "address"
        },
        {
          "internalType": "uint256",
          "name": "amount",
          "type": "uint256"
        }
      ],
      "name": "transferFrom",
      "outputs": [
        {
          "internalType": "bool",
          "name": "",
          "type": "bool"
        }
      ],
      "stateMutability": "nonpayable",
      "type": "function"
    },
    {
      "inputs": [
        {
          "internalType": "uint256",
          "name": "amount",
          "type": "uint256"
        }
      ],
      "name": "withdraw",
      "outputs": [],
      "stateMutability": "nonpayable",
      "type": "function"
    }
  ],
  "bytecode": "0x608060405260006006553480156200001657600080fd5b506040518060400160405280600d81526020017f5772617070656420446e65726f000000000000000000000000000000000000008152506040518060400160405280600681526020017f57444e45524f0000000000000000000000000000000000000000000000000000815250816003908162000094919062000188565b506004620000a3828262000188565b505060016005555062000254565b7f4e487b7100000000000000000000000000000000000000000000000000000000600052604160045260246000fd5b600181811c90821680620000f557607f821691505b6020821081036200012f577f4e487b7100000000000000000000000000000000000000000000000000000000600052602260045260246000fd5b50919050565b601f8211156200018357600081815260208120601f850160051c810160208610156200015e5750805b601f850160051c820191505b818110156200017f578281556001016200016a565b5050505b505050565b81516001600160401b03811115620001a457620001a4620000b1565b620001bc81620001b58454620000e0565b8462000135565b602080601f831160018114620001f45760008415620001db5750858301515b600019600386901b1c1916600185901b1785556200017f565b600085815260208120601f198616915b82811015620002255788860151825594840194600190910190840162000204565b5085821015620002445787850151600019600388901b60f8161c191681555b5050505050600190811b01905550565b61118280620002646000396000f3fe608060405234801561001057600080fd5b50600436106100ea5760003560e01c80634b6efb2b1161008c578063a457c2d711610066578063a457c2d714610201578063a9059cbb14610214578063d0e30db014610227578063dd62ed3e1461022f576100ea565b80634b6efb2b146101c857806370a08231146101d057806395d89b41146101f9576100ea565b806323b872dd116100c857806323b872dd1461017e5780632e1a7d4d14610191578063313ce567146101a657806339509351146101b5576100ea565b806306fdde031461012b578063095ea7b31461014957806318160ddd1461016c575b6002600554036101155760405162461bcd60e51b815260040161010c90610ef4565b60405180910390fd5b6002600555610122610242565b60016005819055005b6101336102f5565b6040516101409190610f4f565b60405180910390f35b61015c610157366004610f9e565b610387565b6040519015158152602001610140565b6002545b604051908152602001610140565b61015c61018c366004610fc8565b6103a1565b6101a461019f366004611004565b6103c5565b005b60405160128152602001610140565b61015c6101c3366004610f9e565b6104f9565b61017061051b565b6101706101de36600461101d565b6001600160a01b031660009081526020819052604090205490565b61013361069b565b61015c61020f366004610f9e565b6106aa565b61015c610222366004610f9e565b610725565b6101a4610733565b61017061023d36600461103f565b610769565b600061024c61051b565b905060006006548261025e9190611088565b60068390559050806102b25760405162461bcd60e51b815260206004820152601a60248201527f4e6f20646e65726f20616d6f756e7420746f206465706f736974000000000000604482015260640161010c565b6102bc3382610794565b60405181815233907fe1fffcc4923d04b559f4d29a8bfc6cda04eb5b0d3c460751c2402c5c5cc9109c9060200160405180910390a25050565b6060600380546103049061109b565b80601f01602080910402602001604051908101604052809291908181526020018280546103309061109b565b801561037d5780601f106103525761010080835404028352916020019161037d565b820191906000526020600020905b81548152906001019060200180831161036057829003601f168201915b5050505050905090565b600033610395818585610873565b60019150505b92915050565b6000336103af858285610998565b6103ba858585610a12565b506001949350505050565b6002600554036103e75760405162461bcd60e51b815260040161010c90610ef4565b6002600555336000908152602081905260409020548111156104425760405162461bcd60e51b8152602060048201526014602482015273496e73756666696369656e742062616c616e636560601b604482015260640161010c565b600081116104925760405162461bcd60e51b815260206004820152601b60248201527f4e6f20646e65726f20616d6f756e7420746f2077697468647261770000000000604482015260640161010c565b8061049b61051b565b6104a59190611088565b6006556104b23382610be0565b6104bc3382610d26565b60405181815233907f7fcf532c15f0a6db0bd6d0e038bea71d30d808c7d98cb3bf7268a95bf5081b659060200160405180910390a2506001600555565b60003361039581858561050c8383610769565b61051691906110d5565b610873565b604080513060601b6bffffffffffffffffffffffff191660208201528151601481830301815260349091019182905260009182908190614e37906105609085906110e8565b600060405180830381855afa9150503d806000811461059b576040519150601f19603f3d011682016040523d82523d6000602084013e6105a0565b606091505b5091509150816106185760405162461bcd60e51b815260206004820152603e60248201527f6661696c656420746f2063616c6c20707265636f6d70696c656420636f6e747260448201527f61637420746f2071756572792074686520446e65726f2062616c616e63650000606482015260840161010c565b60208151111561067c5760405162461bcd60e51b815260206004820152602960248201527f627974657320746f2075696e7432353620636f6e76657273696f6e2077696c6c604482015268206f766572666c6f7760b81b606482015260840161010c565b6000818060200190518101906106929190611104565b95945050505050565b6060600480546103049061109b565b600033816106b88286610769565b9050838110156107185760405162461bcd60e51b815260206004820152602560248201527f45524332303a2064656372656173656420616c6c6f77616e63652062656c6f77604482015264207a65726f60d81b606482015260840161010c565b6103ba8286868403610873565b600033610395818585610a12565b6002600554036107555760405162461bcd60e51b815260040161010c90610ef4565b6002600555610762610242565b6001600555565b6001600160a01b03918216600090815260016020908152604080832093909416825291909152205490565b6001600160a01b0382166107ea5760405162461bcd60e51b815260206004820152601f60248201527f45524332303a206d696e7420746f20746865207a65726f206164647265737300604482015260640161010c565b80600260008282546107fc91906110d5565b90915550506001600160a01b038216600090815260208190526040812080548392906108299084906110d5565b90915550506040518181526001600160a01b038316906000907fddf252ad1be2c89b69c2b068fc378daa952ba7f163c4a11628f55a4df523b3ef9060200160405180910390a35050565b6001600160a01b0383166108d55760405162461bcd60e51b8152602060048201526024808201527f45524332303a20617070726f76652066726f6d20746865207a65726f206164646044820152637265737360e01b606482015260840161010c565b6001600160a01b0382166109365760405162461bcd60e51b815260206004820152602260248201527f45524332303a20617070726f766520746f20746865207a65726f206164647265604482015261737360f01b606482015260840161010c565b6001600160a01b0383811660008181526001602090815260408083209487168084529482529182902085905590518481527f8c5be1e5ebec7d5bd14f71427d1e84f3dd0314c0f7b2291e5b200ac8c7c3b92591015b60405180910390a3505050565b60006109a48484610769565b90506000198114610a0c57818110156109ff5760405162461bcd60e51b815260206004820152601d60248201527f45524332303a20696e73756666696369656e7420616c6c6f77616e6365000000604482015260640161010c565b610a0c8484848403610873565b50505050565b6001600160a01b038316610a765760405162461bcd60e51b815260206004820152602560248201527f45524332303a207472616e736665722066726f6d20746865207a65726f206164604482015264647265737360d81b606482015260840161010c565b6001600160a01b038216610ad85760405162461bcd60e51b815260206004820152602360248201527f45524332303a207472616e7366657220746f20746865207a65726f206164647260448201526265737360e81b606482015260840161010c565b6001600160a01b03831660009081526020819052604090205481811015610b505760405162461bcd60e51b815260206004820152602660248201527f45524332303a207472616e7366657220616d6f756e7420657863656564732062604482015265616c616e636560d01b606482015260840161010c565b6001600160a01b03808516600090815260208190526040808220858503905591851681529081208054849290610b879084906110d5565b92505081905550826001600160a01b0316846001600160a01b03167fddf252ad1be2c89b69c2b068fc378daa952ba7f163c4a11628f55a4df523b3ef84604051610bd391815260200190565b60405180910390a3610a0c565b6001600160a01b038216610c405760405162461bcd60e51b815260206004820152602160248201527f45524332303a206275726e2066726f6d20746865207a65726f206164647265736044820152607360f81b606482015260840161010c565b6001600160a01b03821660009081526020819052604090205481811015610cb45760405162461bcd60e51b815260206004820152602260248201527f45524332303a206275726e20616d6f756e7420657863656564732062616c616e604482015261636560f01b606482015260840161010c565b6001600160a01b0383166000908152602081905260408120838303905560028054849290610ce3908490611088565b90915550506040518281526000906001600160a01b038516907fddf252ad1be2c89b69c2b068fc378daa952ba7f163c4a11628f55a4df523b3ef9060200161098b565b60408051603480825260608201909252600091602082018180368337019050509050816000805b6014811015610db5578560601b8160148110610d6b57610d6b61111d565b1a60f81b8483610d7a81611133565b945081518110610d8c57610d8c61111d565b60200101906001600160f81b031916908160001a90535080610dad81611133565b915050610d4d565b5060005b6020811015610e1e57828160208110610dd457610dd461111d565b1a60f81b8483610de381611133565b945081518110610df557610df561111d565b60200101906001600160f81b031916908160001a90535080610e1681611133565b915050610db9565b6000614e356001600160a01b031685604051610e3a91906110e8565b6000604051808303816000865af19150503d8060008114610e77576040519150601f19603f3d011682016040523d82523d6000602084013e610e7c565b606091505b5050905080610eeb5760405162461bcd60e51b815260206004820152603560248201527f6661696c656420746f2063616c6c20707265636f6d70696c656420636f6e747260448201527461637420746f207472616e7366657220446e65726f60581b606482015260840161010c565b50505050505050565b6020808252601f908201527f5265656e7472616e637947756172643a207265656e7472616e742063616c6c00604082015260600190565b60005b83811015610f46578181015183820152602001610f2e565b50506000910152565b6020815260008251806020840152610f6e816040850160208701610f2b565b601f01601f19169190910160400192915050565b80356001600160a01b0381168114610f9957600080fd5b919050565b60008060408385031215610fb157600080fd5b610fba83610f82565b946020939093013593505050565b600080600060608486031215610fdd57600080fd5b610fe684610f82565b9250610ff460208501610f82565b9150604084013590509250925092565b60006020828403121561101657600080fd5b5035919050565b60006020828403121561102f57600080fd5b61103882610f82565b9392505050565b6000806040838503121561105257600080fd5b61105b83610f82565b915061106960208401610f82565b90509250929050565b634e487b7160e01b600052601160045260246000fd5b8181038181111561039b5761039b611072565b600181811c908216806110af57607f821691505b6020821081036110cf57634e487b7160e01b600052602260045260246000fd5b50919050565b8082018082111561039b5761039b611072565b600082516110fa818460208701610f2b565b9190910192915050565b60006020828403121561111657600080fd5b5051919050565b634e487b7160e01b600052603260045260246000fd5b60006001820161114557611145611072565b506001019056fea26469706673582212206470dd73014ba7a7454c2c55ff714f596e9452932b40c1de4831c4ad85064f5764736f6c63430008130033",
  "linkReferences": {},
  "deployedLinkReferences": {}
}